:100000000C942A000C9447000C9447000C94470071
:100010000C9447000C9447000C9447000C94470044
:100020000C9447000C9447000C9447000C94470034
:100030000C9447000C9447000C9447000C94470024
:100040000C9447000C9447000C9447000C94470014
:100050000C94470011241FBECFE5D8E0DEBFCDBF12
:1000600010E0A0E6B0E0E0EFF5E002C005900D92F0
:10007000A83CB107D9F720E0A8ECB0E001C01D9280
:10008000AF3DB207E1F70E9473020C94F6020C94A4
:10009000000082E08A95F1F700C088B3816088BBD8
:1000A00092E09A95F1F700C088B38E7F88BB8FE904
:1000B0009FE00197F1F700C000000895CF93C82F8B
:1000C000611104C088B38B7F88BB05C0613019F40F
:1000D00088B3846088BB88B38D7F88BB8BB3807FF7
:1000E0008BBB8BB39C2F92959F70892B8BBB0E94EF
:1000F00049008BB3807F8BBB8BB3CF70C82BCBBB3E
:100100000E944900CF910895CF93DF93D82FC62F37
:10011000611105C060E080E88D0F0E945E00C13073
:1001200029F460E080EC8D0F0E945E00DF91CF919A
:100130000895CF93DF93EC010AC061E00E945E0056
:100140008FE097E20197F1F700C0000021968881C7
:100150008111F3CFDF91CF9108951F93CF93DF9358
:10016000CDB7DEB727970FB6F894DEBF0FBECDBF71
:1001700087E0E0E7F0E0DE01119601900D928A95AC
:10018000E1F710E011C0E1E0F0E0EC0FFD1FE10F3E
:10019000F11D60E080810E945E008FE39CE9019781
:1001A000F1F700C000001F5F173068F327960FB605
:1001B000F894DEBF0FBECDBFDF91CF911F910895A0
:1001C000CF93DF938FE081BB8FEF82BBF0E058C00D
:1001D00082B3AF2FB0E061E070E00F2E02C0660F77
:1001E000771F0A94E2F7962F9095892382BB82E0CD
:1001F0008A95F1F700C0E0B3E295EF7090E03AC065
:10020000492F50E02E2F30E0092E02C0359527955A
:100210000A94E2F720FD2DC0EA01CC0FDD1FCC0FC0
:10022000DD1FC05ADF4FCA0FDB1F8881CFE0D7E246
:100230002197F1F700C0000020B34C5F5F4F30E022
:10024000042E02C0359527950A94E2F720FD11C0CF
:1002500020B330E0042E02C0359527950A94E2F7CA
:1002600020FFF6CFEFE0F7E23197F1F700C0000092
:100270000BC09F5F943020F282B3682B62BBFF5F9C
:10028000F43008F4A5CF80E0DF91CF9108950F936B
:100290001F93CF93DF938C01D62FC0E01FC060E087
:1002A00081E00E945E008FE99FE00197F1F700C0B6
:1002B000000060E080E00E948400F801EC0FF11D76
:1002C00061E080810E945E009FEF22E587E091500F
:1002D00020408040E1F700C00000CF5FCD17F8F26A
:1002E00060E081E00E945E008FE99FE00197F1F7F6
:1002F00000C00000DF91CF911F910F9108950F93DF
:100300001F93CF93DF938C01D62F60E080E00E9493
:10031000840087E790E00E94990061E080E00E94FD
:100320008400C0E020C00E94E0008823E1F0813416
:1003300081F4CC2371F0C15061E08C2F0E948400C5
:1003400061E080E20E945E0061E08C2F0E948400E8
:100350000AC0813441F0F801EC0FF11D808361E0A7
:100360000E945E00CF5FCD17F0F2DF91CF911F9119
:100370000F910895DC0190E00DC0292F30E0FD01C0
:10038000E20FF31F5081FB01E20FF31F2081521394
:1003900005C09F5F941788F381E0089580E0089579
:1003A000DC0130E017C0FD01E30FF11D22B79DEC29
:1003B000299F912D1124969596959695990F492FE1
:1003C000440F440F940F291B205D208392B79F5E3A
:1003D00092BF3F5F361738F3089560E081E00E94D6
:1003E0005E008FE99FE00197F1F700C0000060E038
:1003F00080E00E9484008FE790E00E94990061E015
:1004000080E00E9484008AE890E00E949900809138
:10041000D20061E0805D0E945E009FEF2EE984E2E1
:10042000915020408040E1F700C00000089560E056
:1004300081E00E945E008FE99FE00197F1F700C024
:10044000000060E080E00E94840081E990E00E946A
:10045000990061E080E00E9484008AE890E00E94B8
:1004600099008091D20061E0805D0E945E009FEF64
:100470002EE984E2915020408040E1F700C0000066
:10048000089581E08093DD0083E08093DE00109288
:10049000D200089560E081E00E945E008FE99FE055
:1004A0000197F1F700C0000060E080E00E94840046
:1004B0008AE990E00E94990061E080E00E94840057
:1004C00088EA90E00E9499000E94E0008823E1F30E
:1004D00060E081E00E945E008FE99FE00197F1F704
:1004E00000C0000008958AB38F608ABB87B387601D
:1004F00087BB8FE081BB8FEF82BB0E94AD008FE294
:1005000082BF0E9441020E944A025FC060E081E017
:100510000E945E008FE99FE00197F1F700C00000A4
:1005200060E080E00E94840086EB90E00E949900E9
:100530008091DD0061E0805D0E945E009FEF22E51A
:1005400087E0915020408040E1F700C000006091BA
:10055000DD0088EC90E00E94D0016091DD0088EC25
:1005600090E00E9447016091DD0083ED90E00E94E1
:100570007F01C091DD004C2F63ED70E088EC90E0CE
:100580000E94BA01882349F08091D2008F5F809346
:10059000D200CF5FC093DD0018C08091DE00815093
:1005A0008093DE00882389F060E080E00E94840070
:1005B0008EEB90E00E9499009FEF27E883E1915035
:1005C00020408040E1F700C000008091DE008823D9
:1005D00029F09091DD009A3008F498CF811103C082
:1005E0000E94ED018ECF0E9417028BCFF894FFCFAF
:1005F00031343741323538303336393D2F2A2D2BBF
:10060000333201280C06805265706561743A0047E8
:10061000616D65204F766572210053636F72653A94
:1006200000596F752057696E2100507265737320F1
:10063000416E79204B657900546F20537461727458
:100640002047616D65004C6576656C3A20005472F8
:080650007920416761696E0029
:00000001FF
